{
  "contractName": "TxRelay",
  "abi": [
    {
      "anonymous": false,
      "inputs": [
        {
          "indexed": false,
          "internalType": "address",
          "name": "from",
          "type": "address"
        },
        {
          "indexed": false,
          "internalType": "string",
          "name": "message",
          "type": "string"
        }
      ],
      "name": "Log",
      "type": "event"
    },
    {
      "anonymous": false,
      "inputs": [
        {
          "indexed": false,
          "internalType": "bytes32",
          "name": "b",
          "type": "bytes32"
        },
        {
          "indexed": false,
          "internalType": "string",
          "name": "message",
          "type": "string"
        }
      ],
      "name": "Log1",
      "type": "event"
    },
    {
      "inputs": [],
      "name": "g_data_h",
      "outputs": [
        {
          "internalType": "bytes32",
          "name": "",
          "type": "bytes32"
        }
      ],
      "stateMutability": "view",
      "type": "function"
    },
    {
      "inputs": [],
      "name": "g_send_h",
      "outputs": [
        {
          "internalType": "bytes32",
          "name": "",
          "type": "bytes32"
        }
      ],
      "stateMutability": "view",
      "type": "function"
    },
    {
      "inputs": [
        {
          "internalType": "address",
          "name": "",
          "type": "address"
        }
      ],
      "name": "nonce",
      "outputs": [
        {
          "internalType": "uint256",
          "name": "",
          "type": "uint256"
        }
      ],
      "stateMutability": "view",
      "type": "function"
    },
    {
      "inputs": [
        {
          "internalType": "uint8",
          "name": "sigV",
          "type": "uint8"
        },
        {
          "internalType": "bytes32",
          "name": "sigR",
          "type": "bytes32"
        },
        {
          "internalType": "bytes32",
          "name": "sigS",
          "type": "bytes32"
        },
        {
          "internalType": "address",
          "name": "destination",
          "type": "address"
        },
        {
          "internalType": "bytes",
          "name": "data",
          "type": "bytes"
        },
        {
          "internalType": "address",
          "name": "sender",
          "type": "address"
        }
      ],
      "name": "relayMetaTx",
      "outputs": [
        {
          "internalType": "bytes",
          "name": "",
          "type": "bytes"
        }
      ],
      "stateMutability": "nonpayable",
      "type": "function"
    },
    {
      "inputs": [
        {
          "internalType": "bytes",
          "name": "data",
          "type": "bytes"
        }
      ],
      "name": "b20h",
      "outputs": [
        {
          "internalType": "bytes32",
          "name": "",
          "type": "bytes32"
        }
      ],
      "stateMutability": "pure",
      "type": "function"
    }
  ],
  "bytecode": "0x608060405234801561001057600080fd5b50610a0a806100206000396000f3fe608060405234801561001057600080fd5b50600436106100575760003560e01c806370ae92d21461005c578063a88f3218146100b4578063c3f44c0a14610183578063ee425a0e14610318578063ff4b59f914610336575b600080fd5b61009e6004803603602081101561007257600080fd5b81019080803573ffffffffffffffffffffffffffffffffffffffff169060200190929190505050610354565b6040518082815260200191505060405180910390f35b61016d600480360360208110156100ca57600080fd5b81019080803590602001906401000000008111156100e757600080fd5b8201836020820111156100f957600080fd5b8035906020019184600183028401116401000000008311171561011b57600080fd5b91908080601f016020809104026020016040519081016040528093929190818152602001838380828437600081840152601f19601f82011690508083019250505050505050919291929050505061036c565b6040518082815260200191505060405180910390f35b61029d600480360360c081101561019957600080fd5b81019080803560ff1690602001909291908035906020019092919080359060200190929190803573ffffffffffffffffffffffffffffffffffffffff169060200190929190803590602001906401000000008111156101f757600080fd5b82018360208201111561020957600080fd5b8035906020019184600183028401116401000000008311171561022b57600080fd5b91908080601f016020809104026020016040519081016040528093929190818152602001838380828437600081840152601f19601f820116905080830192505050505050509192919290803573ffffffffffffffffffffffffffffffffffffffff169060200190929190505050610440565b6040518080602001828103825283818151815260200191508051906020019080838360005b838110156102dd5780820151818401526020810190506102c2565b50505050905090810190601f16801561030a5780820380516001836020036101000a031916815260200191505b509250505060405180910390f35b6103206109c8565b6040518082815260200191505060405180910390f35b61033e6109ce565b6040518082815260200191505060405180910390f35b60006020528060005260406000206000915090505481565b60006060601467ffffffffffffffff8111801561038857600080fd5b506040519080825280601f01601f1916602001820160405280156103bb5781602001600182028036833780820191505090505b50905060008090505b601481101561042f578381601001815181106103dc57fe5b602001015160f81c60f81b8282815181106103f357fe5b60200101907effffffffffffffffffffffffffffffffffffffffffffffffffffffffffffff1916908160001a90535080806001019150506103c4565b508080519060200120915050919050565b60606000601960f81b600060f81b30856000808873ffffffffffffffffffffffffffffffffffffffff1673ffffffffffffffffffffffffffffffffffffffff16815260200190815260200160002054898960405160200180887effffffffffffffffffffffffffffffffffffffffffffffffffffffffffffff19167effffffffffffffffffffffffffffffffffffffffffffffffffffffffffffff19168152600101877effffffffffffffffffffffffffffffffffffffffffffffffffffffffffffff19167effffffffffffffffffffffffffffffffffffffffffffffffffffffffffffff191681526001018673ffffffffffffffffffffffffffffffffffffffff1673ffffffffffffffffffffffffffffffffffffffff1660601b81526014018573ffffffffffffffffffffffffffffffffffffffff1673ffffffffffffffffffffffffffffffffffffffff1660601b81526014018481526020018373ffffffffffffffffffffffffffffffffffffffff1673ffffffffffffffffffffffffffffffffffffffff1660601b815260140182805190602001908083835b6020831061060057805182526020820191506020810190506020830392506105dd565b6001836020036101000a03801982511681845116808217855250505050505090500197505050505050505060405160208183030381529060405280519060200120905060006001828a8a8a60405160008152602001604052604051808581526020018460ff1660ff1681526020018381526020018281526020019450505050506020604051602081039080840390855afa1580156106a2573d6000803e3d6000fd5b5050506020604051035190508073ffffffffffffffffffffffffffffffffffffffff168473ffffffffffffffffffffffffffffffffffffffff161461074f576040517f08c379a000000000000000000000000000000000000000000000000000000000815260040180806020018281038252600b8152602001807f646966662073656e64657200000000000000000000000000000000000000000081525060200191505060405180910390fd5b6000808573ffffffffffffffffffffffffffffffffffffffff1673ffffffffffffffffffffffffffffffffffffffff1681526020019081526020016000206000815480929190600101919050555060006107a88661036c565b9050600085604051602001808273ffffffffffffffffffffffffffffffffffffffff1673ffffffffffffffffffffffffffffffffffffffff1660601b81526014019150506040516020818303038152906040528051906020012090508160018190555080600281905550818114610887576040517f08c379a00000000000000000000000000000000000000000000000000000000081526004018080602001828103825260148152602001807f547852656c617928292064696666205f66726f6d00000000000000000000000081525060200191505060405180910390fd5b600060608973ffffffffffffffffffffffffffffffffffffffff16896040518082805190602001908083835b602083106108d657805182526020820191506020810190506020830392506108b3565b6001836020036101000a0380198251168184511680821785525050505050509050019150506000604051808303816000865af19150503d8060008114610938576040519150601f19603f3d011682016040523d82523d6000602084013e61093d565b606091505b5091509150816109b5576040517f08c379a00000000000000000000000000000000000000000000000000000000081526004018080602001828103825260148152602001807f547852656c617928292063616c6c206572726f7200000000000000000000000081525060200191505060405180910390fd5b8096505050505050509695505050505050565b60025481565b6001548156fea2646970667358221220f808a17134c4f2a7e6cb40988d0c670a98f7131f9b52168eb7b050d667d4f98f64736f6c63430006060033",
  "immutableReferences": {},
  "source": "pragma solidity >=0.4.22 <0.7.0;\n// -*- mode: emacs-lisp; coding: utf-8-unix -*-\n//pragma solidity 0.4.19;\n\n// https://github.com/trufflesuite/truffle-logger-example\n// consol --network --show-log-statements\n//import \"truffle/Console.sol\";\n\n// This contract is heavily inspired by uPort from https://github.com/uport-project/uport-identity/blob/develop/contracts/TxRelay.sol\ncontract TxRelay {\n\n    // Note: This is a local nonce.\n    // Different from the nonce defined w/in protocol.\n    mapping(address => uint) public nonce;\n\n    // This is for debug purpose\n    event Log(address from, string message);\n    event Log1(bytes32 b, string message);\n\n    // debug data\n    bytes32 public g_data_h;\n    bytes32 public g_send_h;\n    \n    /*\n     * @dev Relays meta transactions\n     * @param sigV, sigR, sigS ECDSA signature on some data to be forwarded\n     * @param destination Location the meta-tx should be forwarded to\n     * @param data The bytes necessary to call the function in the destination contract.\n     * @param sender address of sender who originally signed data\n     */\n    function relayMetaTx(\n        uint8 sigV,\n        bytes32 sigR,\n        bytes32 sigS,\n        address destination,\n        bytes memory data,\n        address sender\n    ) public returns (bytes memory) {\n\n        // EIP-1344 ( Replay Problem )\n        // https://www.youtube.com/watch?v=91X5wzgYlEg\n\n        // EIP-1884Re-Entrancy \n        \n        // use EIP 191\n        // 0x19 :: version :: relay :: sender :: nonce :: destination :: data\n        //bytes32 h = sha3(byte(0x19), byte(0), this, sender, nonce[sender], destination, data);\n        //bytes32 h = sha3(abi.encodePacked(byte(0x19), byte(0), this, sender, nonce[sender], destination, data));\n        bytes32 h = keccak256(abi.encodePacked(byte(0x19), byte(0), this, sender, nonce[sender], destination, data));\n\n        address addressFromSig = ecrecover(h, sigV, sigR, sigS);\n\n        // address recovered from signature must match with claimed sender\n        require(sender == addressFromSig, \"diff sender\");\n\n        //if we are going to do tx, update nonce\n        nonce[sender]++;\n\n        // \n        bytes32 data_h = b20h( data );\n        bytes32 send_h = keccak256( abi.encodePacked( sender ) );\n        g_data_h = data_h;\n        g_send_h = send_h;\n        require(send_h == data_h, \"TxRelay() diff _from\");\n        /* address data_h = b20a( data ); */\n        /* require(sender == data_h, \"TxRelay() diff _from\"); */\n\n        /* emit Log(address(data_h), \"data_h\"); */\n        /* emit Log(address(send_h), \"send_h\"); */\n\n        //Console.log(\"destination\", destination);\n        //emit Log( msg.sender, \"TxRelay() msg.sender\" );\n        //emit Log( sender, \"sender\" );\n        //emit Log( destination, \"TxRelay() destination\" );\n\n        // 12345678\n        // invoke method on behalf of sender\n        (bool ret, bytes memory retval) = destination.call(data);\n        require(ret, \"TxRelay() call error\");\n        return retval;\n    }\n\n    function b20h(bytes memory data) public pure returns( bytes32 ) {\n        bytes memory frombyte = new bytes(20);\n        for (uint j = 0; j < 20; j++) {\n            frombyte[j] = data[ 16 + j];\n        }\n        return keccak256( frombyte );\n    }\n    /* function b20a(bytes memory data) public pure returns( address ) { */\n    /*     if( data.length < 32 ) return 0; */\n    /*     uint len = data.length - 32; */\n    /*     (bytes memory fid, address data_h, bytes memory dummy ) = */\n    /*         abi.decode( data, (bytes[2], address, bytes )); */\n    /*     return data_h; */\n    /* } */\n}\n\n",
  "sourcePath": "I:/home/GIT_Branches/contracts/TxRelay.sol",
  "compiler": {
    "name": "solc",
    "version": "0.6.6+commit.6c089d02.Emscripten.clang"
  },
  "schemaVersion": "3.3.3",
  "updatedAt": "2021-02-07T07:44:40.789Z",
  "devdoc": {
    "methods": {}
  },
  "userdoc": {
    "methods": {}
  }
}