{
  "contractName": "TxRelay",
  "abi": [
    {
      "anonymous": false,
      "inputs": [
        {
          "indexed": false,
          "internalType": "address",
          "name": "from",
          "type": "address"
        },
        {
          "indexed": false,
          "internalType": "string",
          "name": "message",
          "type": "string"
        }
      ],
      "name": "Log",
      "type": "event"
    },
    {
      "anonymous": false,
      "inputs": [
        {
          "indexed": false,
          "internalType": "bytes32",
          "name": "b",
          "type": "bytes32"
        },
        {
          "indexed": false,
          "internalType": "string",
          "name": "message",
          "type": "string"
        }
      ],
      "name": "Log1",
      "type": "event"
    },
    {
      "constant": true,
      "inputs": [
        {
          "internalType": "address",
          "name": "",
          "type": "address"
        }
      ],
      "name": "nonce",
      "outputs": [
        {
          "internalType": "uint256",
          "name": "",
          "type": "uint256"
        }
      ],
      "payable": false,
      "stateMutability": "view",
      "type": "function"
    },
    {
      "constant": false,
      "inputs": [
        {
          "internalType": "uint8",
          "name": "sigV",
          "type": "uint8"
        },
        {
          "internalType": "bytes32",
          "name": "sigR",
          "type": "bytes32"
        },
        {
          "internalType": "bytes32",
          "name": "sigS",
          "type": "bytes32"
        },
        {
          "internalType": "address",
          "name": "destination",
          "type": "address"
        },
        {
          "internalType": "bytes",
          "name": "data",
          "type": "bytes"
        },
        {
          "internalType": "address",
          "name": "sender",
          "type": "address"
        }
      ],
      "name": "relayMetaTx",
      "outputs": [],
      "payable": false,
      "stateMutability": "nonpayable",
      "type": "function"
    },
    {
      "constant": true,
      "inputs": [
        {
          "internalType": "bytes",
          "name": "data",
          "type": "bytes"
        }
      ],
      "name": "b20h",
      "outputs": [
        {
          "internalType": "bytes32",
          "name": "",
          "type": "bytes32"
        }
      ],
      "payable": false,
      "stateMutability": "pure",
      "type": "function"
    }
  ],
  "bytecode": "0x608060405234801561001057600080fd5b50610909806100206000396000f3fe608060405234801561001057600080fd5b50600436106100415760003560e01c806370ae92d214610046578063a88f32181461009e578063c3f44c0a1461016d575b600080fd5b6100886004803603602081101561005c57600080fd5b81019080803573ffffffffffffffffffffffffffffffffffffffff169060200190929190505050610289565b6040518082815260200191505060405180910390f35b610157600480360360208110156100b457600080fd5b81019080803590602001906401000000008111156100d157600080fd5b8201836020820111156100e357600080fd5b8035906020019184600183028401116401000000008311171561010557600080fd5b91908080601f016020809104026020016040519081016040528093929190818152602001838380828437600081840152601f19601f8201169050808301925050505050505091929192905050506102a1565b6040518082815260200191505060405180910390f35b610287600480360360c081101561018357600080fd5b81019080803560ff1690602001909291908035906020019092919080359060200190929190803573ffffffffffffffffffffffffffffffffffffffff169060200190929190803590602001906401000000008111156101e157600080fd5b8201836020820111156101f357600080fd5b8035906020019184600183028401116401000000008311171561021557600080fd5b91908080601f016020809104026020016040519081016040528093929190818152602001838380828437600081840152601f19601f820116905080830192505050505050509192919290803573ffffffffffffffffffffffffffffffffffffffff169060200190929190505050610361565b005b60006020528060005260406000206000915090505481565b6000606060146040519080825280601f01601f1916602001820160405280156102d95781602001600182028038833980820191505090505b50905060008090505b601481101561034d578381601001815181106102fa57fe5b602001015160f81c60f81b82828151811061031157fe5b60200101907effffffffffffffffffffffffffffffffffffffffffffffffffffffffffffff1916908160001a90535080806001019150506102e2565b506000818051906020012090505050919050565b6000601960f81b600060f81b30846000808773ffffffffffffffffffffffffffffffffffffffff1673ffffffffffffffffffffffffffffffffffffffff16815260200190815260200160002054888860405160200180887effffffffffffffffffffffffffffffffffffffffffffffffffffffffffffff19167effffffffffffffffffffffffffffffffffffffffffffffffffffffffffffff19168152600101877effffffffffffffffffffffffffffffffffffffffffffffffffffffffffffff19167effffffffffffffffffffffffffffffffffffffffffffffffffffffffffffff191681526001018673ffffffffffffffffffffffffffffffffffffffff1673ffffffffffffffffffffffffffffffffffffffff1660601b81526014018573ffffffffffffffffffffffffffffffffffffffff1673ffffffffffffffffffffffffffffffffffffffff1660601b81526014018481526020018373ffffffffffffffffffffffffffffffffffffffff1673ffffffffffffffffffffffffffffffffffffffff1660601b815260140182805190602001908083835b6020831061051f57805182526020820191506020810190506020830392506104fc565b6001836020036101000a038019825116818451168082178552505050505050905001975050505050505050604051602081830303815290604052805190602001209050600060018289898960405160008152602001604052604051808581526020018460ff1660ff1681526020018381526020018281526020019450505050506020604051602081039080840390855afa1580156105c1573d6000803e3d6000fd5b5050506020604051035190508073ffffffffffffffffffffffffffffffffffffffff168373ffffffffffffffffffffffffffffffffffffffff161461066e576040517f08c379a000000000000000000000000000000000000000000000000000000000815260040180806020018281038252600b8152602001807f646966662073656e64657200000000000000000000000000000000000000000081525060200191505060405180910390fd5b6000808473ffffffffffffffffffffffffffffffffffffffff1673ffffffffffffffffffffffffffffffffffffffff1681526020019081526020016000206000815480929190600101919050555060006106c7856102a1565b9050600084604051602001808273ffffffffffffffffffffffffffffffffffffffff1673ffffffffffffffffffffffffffffffffffffffff1660601b8152601401915050604051602081830303815290604052805190602001209050818114610798576040517f08c379a00000000000000000000000000000000000000000000000000000000081526004018080602001828103825260148152602001807f547852656c617928292064696666205f66726f6d00000000000000000000000081525060200191505060405180910390fd5b600060608873ffffffffffffffffffffffffffffffffffffffff16886040518082805190602001908083835b602083106107e757805182526020820191506020810190506020830392506107c4565b6001836020036101000a0380198251168184511680821785525050505050509050019150506000604051808303816000865af19150503d8060008114610849576040519150601f19603f3d011682016040523d82523d6000602084013e61084e565b606091505b5091509150816108c6576040517f08c379a00000000000000000000000000000000000000000000000000000000081526004018080602001828103825260148152602001807f547852656c617928292063616c6c206572726f7200000000000000000000000081525060200191505060405180910390fd5b50505050505050505050505056fea265627a7a72315820a015b020f3f6b564d29450b2c91b18208e63623899f2d53c14993f1832f7a7a264736f6c63430005100032",
  "source": "pragma solidity >=0.4.22 <0.7.0;\n// -*- mode: emacs-lisp; coding: utf-8-unix -*-\n//pragma solidity 0.4.19;\n\n// https://github.com/trufflesuite/truffle-logger-example\n// consol --network --show-log-statements\n//import \"truffle/Console.sol\";\n\n// This contract is heavily inspired by uPort from https://github.com/uport-project/uport-identity/blob/develop/contracts/TxRelay.sol\ncontract TxRelay {\n\n    // Note: This is a local nonce.\n    // Different from the nonce defined w/in protocol.\n    mapping(address => uint) public nonce;\n\n    // This is for debug purpose\n    event Log(address from, string message);\n    event Log1(bytes32 b, string message);\n\n    /*\n     * @dev Relays meta transactions\n     * @param sigV, sigR, sigS ECDSA signature on some data to be forwarded\n     * @param destination Location the meta-tx should be forwarded to\n     * @param data The bytes necessary to call the function in the destination contract.\n     * @param sender address of sender who originally signed data\n     */\n    function relayMetaTx(\n        uint8 sigV,\n        bytes32 sigR,\n        bytes32 sigS,\n        address destination,\n        bytes memory data,\n        address sender\n    ) public {\n\n        // EIP-1344 ( Replay Problem )\n        // https://www.youtube.com/watch?v=91X5wzgYlEg\n\n        // EIP-1884Re-Entrancy \n        \n        // use EIP 191\n        // 0x19 :: version :: relay :: sender :: nonce :: destination :: data\n        //bytes32 h = sha3(byte(0x19), byte(0), this, sender, nonce[sender], destination, data);\n        //bytes32 h = sha3(abi.encodePacked(byte(0x19), byte(0), this, sender, nonce[sender], destination, data));\n        bytes32 h = keccak256(abi.encodePacked(byte(0x19), byte(0), this, sender, nonce[sender], destination, data));\n\n        address addressFromSig = ecrecover(h, sigV, sigR, sigS);\n\n        // address recovered from signature must match with claimed sender\n        require(sender == addressFromSig, \"diff sender\");\n\n        //if we are going to do tx, update nonce\n        nonce[sender]++;\n\n        // \n        bytes32 data_h = b20h( data );\n        bytes32 send_h = keccak256( abi.encodePacked( sender ) );\n        require(send_h == data_h, \"TxRelay() diff _from\");\n        /* address data_h = b20a( data ); */\n        /* require(sender == data_h, \"TxRelay() diff _from\"); */\n\n        /* emit Log(address(data_h), \"data_h\"); */\n        /* emit Log(address(send_h), \"send_h\"); */\n\n        //Console.log(\"destination\", destination);\n        //emit Log( msg.sender, \"TxRelay() msg.sender\" );\n        //emit Log( sender, \"sender\" );\n        //emit Log( destination, \"TxRelay() destination\" );\n\n        // 12345678\n        // invoke method on behalf of sender\n        (bool ret, bytes memory retval) = destination.call(data);\n        require(ret, \"TxRelay() call error\");\n    }\n\n    function b20h(bytes memory data) public pure returns( bytes32 ) {\n        bytes memory frombyte = new bytes(20);\n        for (uint j = 0; j < 20; j++) {\n            frombyte[j] = data[ 16 + j];\n        }\n        bytes32 data_h = keccak256( frombyte );\n    }\n    /* function b20a(bytes memory data) public pure returns( address ) { */\n    /*     if( data.length < 32 ) return 0; */\n    /*     uint len = data.length - 32; */\n    /*     (bytes memory fid, address data_h, bytes memory dummy ) = */\n    /*         abi.decode( data, (bytes[2], address, bytes )); */\n    /*     return data_h; */\n    /* } */\n}\n\n",
  "sourcePath": "I:/yoshimaru/linux_home/OpenSSL/contracts/TxRelay.sol",
  "compiler": {
    "name": "solc",
    "version": "0.5.16+commit.9c3226ce.Emscripten.clang"
  },
  "schemaVersion": "3.2.5",
  "updatedAt": "2020-09-21T07:02:59.958Z",
  "devdoc": {
    "methods": {}
  },
  "userdoc": {
    "methods": {}
  }
}